:1000000044C1000073C1000071C100006FC1000055
:100010006DC100006BC1000069C1000067C1000034
:1000200065C1000063C1000061C100005FC1000044
:100030005DC100005BC1000059C1000057C1000054
:1000400055C1000053C1000051C100004FC1000064
:100050004DC100004BC1000049C100000C94FB0BD6
:1000600045C10000C9C400009EC400003FC100009B
:100070003DC100003BC1000039C1000037C1000094
:1000800035C1000033C1000031C100002FC10000A4
:100090002DC100002BC1000029C1000076C5000061
:1000A00025C1000023C1000021C100001FC10000C4
:1000B0001DC100001BC1000019C1000017C10000D4
:1000C00015C1000013C1000011C100000FC10000E4
:1000D0000DC100000BC1000009C1000007C10000F4
:1000E00005C10000010406040E0419041B042004C9
:1000F000280433044104430472097509640968093A
:100100006E09AC0979097D09830987098B09910971
:1001100095099909AC099F09A309A7099D0BA20B91
:10012000A50BA40BA70BA90BAC0BAB0B4E414E4977
:100130004E495459494E46CDCCCC3D0AD7233C17A5
:10014000B7D13877CC2B329595E6241FB14F0A00F2
:100150000020410000C84200401C4620BCBE4CCAE2
:100160001B0E5AAEC59D7400002100240027002AF2
:10017000002D003000330001010000040107010AD6
:100180000100002200250028002B002E0031003441
:100190000002010000050108010B010000200023FE
:1001A00000260029002C002F00320000010000036F
:1001B00001060109010505050507050808080802EB
:1001C0000202020A0A0808040404040101010101F0
:1001D0000101010303030303030303040707070CDF
:1001E0000C0C0C0C0C0C0C02020202060606060695
:1001F0000606060B0B0B0B0B0B0B0B010210202042
:10020000080810204010204080020102010804026A
:1002100001010204081020408080402010080402E0
:100220000180040201804020100804020108040239
:10023000010102040810204080010204081020403F
:100240008000000A0B02090C0D0E080703040100D0
:10025000000000000000000000000000000000009E
:10026000000000000000000000000000001211105B
:10027000000000000000000000000000000000007E
:1002800000000000000000001E1311241FBECFEF6D
:10029000D1E2DEBFCDBF00E00CBF25E0ACE9B3E0AA
:1002A00001C01D92A43DB207E1F713E0A0E0B2E067
:1002B000E2E1F7E300E00BBF02C007900D92AC391A
:1002C000B107D9F711E0C5E4D1E000E006C02197FD
:1002D0000109802FFE010E945619C434D10780E025
:1002E0000807A9F70E94450C0C94871B89CECF9272
:1002F000DF92EF92FF920F931F93CF93DF936C01E6
:100300007A018B01C0E0D0E0CE15DF0581F0D80185
:100310006D918D01D601ED91FC910190F081E02D60
:10032000C6011995892B11F02196EECF7E01C701E8
:10033000DF91CF911F910F91FF90EF90DF90CF90C1
:100340000895FC01538D448D252F30E0842F90E0DB
:10035000821B930B541710F0CF96089501970895C0
:10036000FC01918D828D981761F0828DDF01A80FBD
:10037000B11D5D968C91928D9F5F9F73928F90E0DF
:1003800008958FEF9FEF0895FC01918D828D98174E
:1003900031F0828DE80FF11D858D90E008958FEF8B
:1003A0009FEF0895FC01918D228D892F90E0805C54
:1003B0009F4F821B91098F73992708958FE594E0D1
:1003C000F1DF21E0892B09F420E0822F0895FC0160
:1003D000848DDF01A80FB11DA35ABF4F2C91848DCE
:1003E00090E001968F739927848FA689B7892C9303
:1003F000A089B1898C91837080648C93938D848D56
:10040000981306C00288F389E02D80818F7D808358
:100410000895EF92FF920F931F93CF93DF93EC0118
:1004200081E0888F9B8D8C8D981305C0E889F989B0
:10043000808185FD25C0F62E0B8D10E00F5F1F4FCC
:100440000F731127E02E8C8DE8120BC00FB607FC3E
:10045000FACFE889F989808185FFF5CFCE01B7DF32
:10046000F2CF8B8DFE01E80FF11DE35AFF4FF082B2
:100470009FB7F8940B8FEA89FB89808180620AC05C
:100480009FB7F894EE89FF896083E889F9898081B4
:100490008370806480839FBF81E090E0DF91CF9183
:1004A0001F910F91FF90EF900895CF93DF93EC0190
:1004B000888D8823C1F0EA89FB89808185FD05C08C
:1004C000A889B9898C9186FD0EC00FB607FCF5CFBF
:1004D000808185FFF2CFA889B9898C9185FFEDCF06
:1004E000CE0175DFE8CFDF91CF91089580E090E0F5
:1004F000892B19F063DF811125C080E090E0892B02
:1005000041F080E090E0892B21F00E9400008111F1
:100510001CC080E090E0892B41F080E090E0892BC6
:1005200021F00E940000811113C080E090E0892B2F
:10053000A1F080E090E0892B81F00E940000811101
:100540000AC008950E940000D8CF0E940000E1CFA9
:100550000E940000EACF0C940000089585ED80937E
:10056000BC008091BC0084FDFCCF10925A04089519
:100570004091EB03262F30E0240F311D213231054D
:10058000DCF420915A042430C9F4FC0180E090E0AE
:10059000861758F43091EB032191DC01A553BC4F31
:1005A000A30FB11D2C930196F3CF8091EB03680F3D
:1005B0006093EB0380E0089581E0089582E0089560
:1005C000089508950895E0915E0480915D04E81710
:1005D00030F4F0E0E555FC4F808190E008958FEF16
:1005E0009FEF089590915E0480915D04981750F4F8
:1005F000E92FF0E0E555FC4F208130E09F5F9093BC
:100600005E0402C02FEF3FEFC901089580915D04A1
:1006100090E020915E04821B91090895CF92DF92B1
:10062000EF92FF920F931F93CF93DF937C01CB0147
:100630008A0120913204222389F0EB016B01C40E60
:10064000D51ECC15DD0561F06991D701ED91FC91C6
:100650000190F081E02DC7011995F3CF642F88DF59
:10066000C801DF91CF911F910F91FF90EF90DF9024
:10067000CF900895CF93DF931F92CDB7DEB76983F4
:10068000209132042223D1F020915B04203240F0EB
:1006900021E030E0FC013383228380E090E014C04D
:1006A00080915C04E82FF0E0ED5CFB4F9981908332
:1006B0008F5F80935C0480935B0404C061E0CE0193
:1006C000019656DF81E090E00F90DF91CF91089581
:1006D000089580E090E008950E94731B0F931F938C
:1006E000CF93DF93EC0188819981009729F02A81CB
:1006F0003B812617370788F48B016F5F7F4F0E947D
:10070000931A009761F0998388831B830A832C8155
:100710003D81232B11F4FC01108281E001C080E0B7
:10072000DF91CF911F910F910895862F91C6862F4B
:10073000642FB6C60F931F93CF93DF93EC018B0109
:10074000888599850297D9F46130710569F024F4A0
:10075000672BA9F460E009C06230710551F0633085
:10076000710569F460E006C061E08C8599D661E0AE
:1007700004C061E08C8594D660E08E8591D6888532
:100780009985049771F501301105A1F044F4011524
:10079000110539F561E08C8583D660E00FC0023029
:1007A000110599F003301105E1F461E08C8578D6EC
:1007B00060E00FC060E08C8573D661E08E8570D6F6
:1007C00061E088896DD660E00AC060E08C8568D6FB
:1007D00061E08E8565D660E0888962D661E08A89AD
:1007E0005FD688859985059709F060C00A301105A4
:1007F00008F05CC0F8018827EE58FF4F8F4F0C942B
:10080000561960E08C854CD661E041C060E08C8573
:1008100047D661E08E8544D660E03CC060E08C85C0
:100820003FD661E08E853CD660E0888939D661E0AC
:1008300034C060E001C061E08C8532D661E004C064
:1008400061E08C852DD660E08E852AD660E007C0F9
:1008500061E08C8525D660E08E8522D661E08889AE
:100860001FD661E00AC061E08C851AD660E08E85F3
:1008700017D661E0888914D660E08A8911D660E0D5
:100880000FC061E001C060E08C850AD660E08E8513
:1008900007D661E0888904D660E08A8901D661E0E4
:1008A0008C89DF91CF911F910F91FAC5DF91CF9184
:1008B0001F910F910895862F642F20C6EF92FF920B
:1008C0000F931F93CF93DF936115710511F480E0AF
:1008D0001BC041155105B9F07B01EC018C819D8154
:1008E0008A01080F191FB801CE01F8DE882379F3B9
:1008F000288139818C819D81B701820F931F0E94CD
:10090000801B1D830C8381E0DF91CF911F910F919C
:10091000FF90EF900895CF93DF93EC018881998148
:10092000009711F00E940A1A198218821D821C82F7
:100930001B821A82DF91CF910895CF93DF93EC0150
:100940006115710559F0FB0101900020E9F731971D
:10095000AF01461B570BB2DF811102C0CE01DBDFB6
:10096000CE01DF91CF910895EF92FF920F931F93E5
:10097000CF93DF93EC017B018A01BA01AFDE8111D5
:1009800003C0CE01C8DF07C01D830C83B701888177
:1009900099810E94801BCE01DF91CF911F910F9111
:1009A000FF90EF9008951F920F920FB60F921124AF
:1009B0000BB60F922F933F934F935F936F937F9359
:1009C0008F939F93AF93BF93EF93FF938FE594E043
:1009D000FEDCFF91EF91BF91AF919F918F917F913D
:1009E0006F915F914F913F912F910F900BBE0F90A0
:1009F0000FBE0F901F9018951F920F920FB60F9277
:100A000011240BB60F922F938F939F93EF93FF9325
:100A1000E0916F04F09170048081E0917504F09191
:100A2000760482FD12C09081809178048F5F8F736D
:100A300020917904821751F0E0917804F0E0E15AB6
:100A4000FB4F958F8093780401C08081FF91EF91D7
:100A50009F918F912F910F900BBE0F900FBE0F9013
:100A60001F901895CF93FC01C48121E0209332049C
:100A7000C093530410925C0410925B048385682B2E
:100A80008CEF94E0F7DD90915B04913208F045C063
:100A900080915A048111FCCF82E080935A0481E056
:100AA000809359048FEF8093310410923004909317
:100AB0002F04A3E3B4E0EFE0F4E080E0981721F026
:100AC0002D9121938F5FFACF10920E0480910E0426
:100AD000CC0FC82BC0930E0480915804813061F470
:100AE0001092580480910E048093BB008091BC004A
:100AF00083FDF8CF85EC01C085EE8093BC0080912A
:100B00005A048230E1F3809131048F3F31F08091BB
:100B10003104803211F08091310410925C04109203
:100B20005B0410923204CF9108950F931F93CF93DB
:100B30008C01C62F97DF6C2F6460C80193DF6C2F88
:100B40006B7FC8018FDF83EC90E00197F1F7CF91C5
:100B50001F910F9108950F931F93CF93DF938C01F3
:100B6000C62FD42F607F642BE0DF80E1C89FB001E7
:100B700011246D2BC801DF91CF911F910F91D5CF1B
:100B800041E0E9DF81E090E008951F920F920FB6F7
:100B90000F9211240BB60F922F933F934F935F93B5
:100BA0006F937F938F939F93AF93BF93EF93FF9335
:100BB0008091B900887F803609F49CC068F588323E
:100BC00009F45BC090F4803109F454C038F48823F0
:100BD00009F4F6C0883009F44DC0F5C0883109F435
:100BE0004CC0803209F45DC0EEC0803409F468C0A6
:100BF00048F4803309F455C0883309F0E4C0809389
:100C00003104D8C0803509F44FC0883509F45DC07F
:100C1000883409F0D8C0D6C0883909F4C7C0A8F410
:100C2000883709F467C038F4883609F463C0803720
:100C300009F460C0C8C0883809F4B8C0803909F424
:100C40005FC0803809F0BFC05BC0803B09F486C03C
:100C500038F4803A09F466C0883A09F47FC0B3C01A
:100C6000803C09F4A7C0883C09F4A4C0883B09F47F
:100C70008AC0A9C080910E0410C090913004809168
:100C80002F04981770F5E091300481E08E0F809367
:100C90003004F0E0E15FFB4F80818093BB0085EC86
:100CA00086C0809331048EC0E091300481E08E0FC5
:100CB000809330048091BB00F0E0E15FFB4F8083C4
:100CC0009091300480912F046EC0E091300481E057
:100CD0008E0F809330048091BB00F0E0E15FFB4F0A
:100CE00080838091590481116DC081E08093580404
:100CF00084EA61C083E080935A0410920D04CFCF40
:100D000080910D04803208F051C0E0910D0481E023
:100D10008E0F80930D048091BB00F0E0E351FC4FF7
:100D20008083BDCF85EC8093BC0010925A048091E3
:100D30000D04803230F4E0910D04F0E0E351FC4FFB
:100D4000108260910D0470E0E0915404F09155041C
:100D50008DEE93E0199510920D0435C084E08093D8
:100D60005A041092EC031092EB03E0915604F091B8
:100D7000570419958091EB03811105C081E08093A0
:100D8000EB031092CB03E091EC0381E08E0F809394
:100D9000EC03F0E0E553FC4F80818093BB00909121
:100DA000EC038091EB03981708F479CF85E88093E2
:100DB000BC0009C085EC8093BC0010925A0403C0AB
:100DC00010923104CBDBFF91EF91BF91AF919F91D6
:100DD0008F917F916F915F914F913F912F910F90E4
:100DE0000BBE0F900FBE0F901F9018954F925F9201
:100DF0006F927F928F929F92AF92BF92CF92DF922B
:100E0000EF92FF920F931F93CF93DF93EC018B012F
:100E100077FF04C000271127061B170B16161706AD
:100E20002CF481E090E09983888304C0672B11F053
:100E30001982188284E0E82EF12C9AE0C92ED12C78
:100E40000115110509F447C095D38E889F88A88C99
:100E5000B98C2B013C01481859086A087B088A8024
:100E60009B80AC80BD80481459046A047B0440F325
:100E70006E8B7F8B888F998F288139818A859B859E
:100E80002130310559F401969B878A872E813F8155
:100E90008217930771F41B861A860BC0892B21F4E5
:100EA0008E819F819B878A878A859B8501979B87F7
:100EB0008A8701501109288539858A859B852530C7
:100EC000310511F4B60101C0B7010E940519BC013A
:100ED000CE0130DCB5CFDF91CF911F910F91FF9004
:100EE000EF90DF90CF90BF90AF909F908F907F90CA
:100EF0006F905F904F900895CF93DF9360E08CE008
:100F0000CFD260E088E0CCD2C7E0D0E060E084E0FF
:100F1000C7D28091080590E00C2E02C09595879568
:100F20000A94E2F780FF02C061E001C060E088E05F
:100F3000B7D261E084E0B4D2219740F761E08CE061
:100F4000DF91CF91ADC2009761F0FC0101900020CC
:100F5000E9F73197AF01481B590BBC018AE095E0D6
:100F6000C6C980E090E00895EECFCF93DF93CDB770
:100F7000DEB728970FB6F894DEBF0FBECDBF98E05E
:100F8000E0E2F2E0DE01119601900D929A95E1F710
:100F900090911205961710F46FEF690FFE013196CC
:100FA000E60FF11DE60FF11D6081680F606840E0FB
:100FB0008AE095E028960FB6F894DEBF0FBECDBF4D
:100FC000DF91CF91C8CD40E061E08AE095E0C3DDDC
:100FD0008BE39FE10197F1F70895CF93DF93109290
:100FE0005E0410925D0410925C0410925B041092F7
:100FF0005A0481E0809359041092580461E084E11E
:101000004FD261E085E14CD28091B9008E7F809310
:10101000B9008091B9008D7F8093B90088E48093F6
:10102000B80085E48093BC0080EE92E09093570472
:101030008093560481EE92E090935504809354047B
:1010400010920F0580911405823018F098E090936B
:101050000F058093120562E370E080E090E0AFD26C
:10106000609115058AE095E0FDDC68EE73E080E0B4
:1010700090E0A5D260E38AE095E057DDCBE4D6E4CA
:10108000CE010197F1F760E38AE095E04EDD21970C
:10109000F1F760E38AE095E048DD83E592E00197AF
:1010A000F1F760E28AE095E040DD60910F05606253
:1010B00040E08AE095E04FDD84E08093100540E059
:1010C0006CE08AE095E047DD7EDF82E080931105E9
:1010D00040E066E08AE095E03EDD40E062E08AE0E4
:1010E00095E039DD8BE39FE10197F1F7DF91CF9137
:1010F00008958F929F92AF92BF920F931F93CF93B9
:10110000DF93CDB7DEB7A1970FB6F894DEBF0FBE61
:10111000CDBF19A2423008F44AE08E010F5D1F4F87
:10112000842E912CA12CB12CA50194010E94181998
:10113000E62FB901CA0101501109EA3014F4E05D4B
:1011400001C0E95CD801EC93232B242B252B61F7FC
:10115000C801F9DEA1960FB6F894DEBF0FBECDBF71
:10116000DF91CF911F910F91BF90AF909F908F9083
:101170000895CF92DF92EF92FF926C01990FEE08E3
:10118000FF08F7FE14C041E06DE28AE095E0E3DC81
:1011900066277727CB016C197D098E099F094AE0E4
:1011A000A8DF0196FF90EF90DF90CF9008954AE07E
:1011B000C701B601FF90EF90DF90CF909ACFFC016E
:1011C000808191810C940A1AFC01448155816081CF
:1011D00071818AE095E08BC8CF93DF93EC01FB012E
:1011E000448155816081718169DB811102C0CE012A
:1011F00092DBCE01DF91CF910895EF92FF920F9392
:101200001F93CF93DF93CDB7DEB762970FB6F894F5
:10121000DEBF0FBECDBF8C01CB01F8011182108261
:1012200013821282158214824AE09E012F5F3F4F83
:101230007901B9010E94D114F70101900020E9F76A
:101240003197AF014E195F09B701C8018DDB629676
:101250000FB6F894DEBF0FBECDBFDF91CF911F91C7
:101260000F91FF90EF90089596E0899FD00111248F
:10127000AA5ABA4F90967C936E935F9791E091969D
:101280009C9391979091C205E091C305F091C4059C
:10129000992339F0309751F0811108C0809172057F
:1012A00004C0309719F05C968C911994089590E0E1
:1012B000FC013197E231F10508F04EC08827E4586F
:1012C000FF4F8F4F0C945619809180008F7703C089
:1012D000809180008F7D80938000089580918000B0
:1012E000877FF9CF84B58F7702C084B58F7D84BDA9
:1012F00008958091B0008F7703C08091B0008F7DFA
:101300008093B0000895809190008F7707C08091FE
:1013100090008F7D03C080919000877F8093900024
:1013200008958091A0008F7707C08091A0008F7DE5
:1013300003C08091A000877F8093A00008958091D2
:1013400020018F7707C0809120018F7D03C080919D
:101350002001877F809320010895FC011182108273
:10136000138212821582148241E050E061E473E03E
:10137000FBCACF92DF92EF92FF920F931F9396E0FA
:10138000899FF0011124EA5AFA4F11A2278D30A14A
:101390002130310531F158F02230310509F446C0D1
:1013A0002330310509F04DC060E070E043C0662392
:1013B00009F447C061E070E057DF2FB7F8948091DF
:1013C000C5059091C605A091C705B091C8052FBF6E
:1013D0008093AE059093AF05A093B005B093B1058F
:1013E00030C09FB7F894C090C505D090C605E09076
:1013F000C705F090C8059FBF0091AE051091AF05DD
:101400002091B0053091B105C01AD10AE20AF30A61
:101410000091C0051091C10520E030E00C151D05BC
:101420002E053F0518F462E070E004C0611109C0A8
:1014300063E070E01F910F91FF90EF90DF90CF90ED
:1014400013CF1F910F91FF90EF90DF90CF900895F1
:10145000CF93DF93282F30E0F901EF5BFD4F8491AC
:10146000F901E550FE4FD491F901EB54FE4FC491C0
:10147000CC2389F081111BDFEC2FF0E0EE0FFF1F72
:10148000E556FE4FA591B491EC91ED2381E090E0FB
:1014900021F480E002C080E090E0DF91CF910895D8
:1014A0001F93CF93DF93282F30E0F901EF5BFD4FBF
:1014B0008491F901E550FE4FD491F901EB54FE4FB0
:1014C000C491CC23B9F0162F8111F1DEEC2FF0E09E
:1014D000EE0FFF1FEF57FE4FA591B4919FB7F89401
:1014E000111104C08C91D095D82302C0EC91DE2B51
:1014F000DC939FBFDF91CF911F910895CF93DF932E
:1015000090E0FC01E550FE4F2491FC01EB54FE4FAE
:101510008491882361F190E0880F991FFC01E959BB
:10152000FE4FC591D491FC01EF57FE4FA591B491A8
:10153000611109C09FB7F894888120958223888320
:10154000EC912E230BC0623061F49FB7F894888130
:10155000322F309583238883EC912E2B2C939FBFC1
:1015600006C08FB7F894E8812E2B28838FBFDF91B8
:10157000CF9108953FB7F8948091CA059091CB051B
:10158000A091CC05B091CD0526B5A89B05C02F3FF5
:1015900019F00196A11DB11D3FBFBA2FA92F982F99
:1015A0008827820F911DA11DB11DBC01CD0142E014
:1015B000660F771F881F991F4A95D1F708958F925C
:1015C0009F92AF92BF92CF92DF92EF92FF926B0108
:1015D0007C01D0DF4B015C01C114D104E104F104B2
:1015E000E9F0C8DFDC01CB0188199909AA09BB0918
:1015F000883E9340A105B10578F321E0C21AD108D5
:10160000E108F10888EE880E83E0981EA11CB11C49
:10161000C114D104E104F10421F7DECFFF90EF9073
:10162000DF90CF90BF90AF909F908F9008952F92B2
:101630003F924F925F926F927F928F929F92AF9262
:10164000BF92CF92DF92EF92FF920F931F93CF93AF
:10165000DF938C01362E60914D0570914E0580917F
:101660004F059091500528EE33E040E050E00E9495
:10167000181969017A014B015C01E8010FEF10E0D4
:10168000209709F4A5C090914C05913041F092301B
:1016900009F066C030E440E821E050E204C030E1E7
:1016A00048E022E054E08091550561E083FD06C0EA
:1016B000361202C0885F07C0885005C0361202C0CB
:1016C000805F01C0805180935505809155058F73CF
:1016D00080935505913049F4109389000093880058
:1016E00010939D0000939C000AC0923041F4109327
:1016F000A9000093A8001093990000939800752FFB
:10170000722B642F632B962F972B90958091080551
:1017100098239093080520905505269426942694A6
:10172000422C512C88E048165104C8F4F201882755
:10173000E257FF4F8F4F0C945619352F392B3093AA
:1017400008050DC0972B09C0242B922B06C0942BA3
:1017500004C0962B02C0352B932B90930805CCDB4D
:10176000C701B6012CDF8091510590915205A091DF
:101770005305B0915405880D991DAA1DBB1D80937A
:10178000510590935205A0935305B0935405883E9C
:101790009340A105B10510F4219772CF61E070E08C
:1017A00080E090E00CDF8091510590915205A0916E
:1017B0005305B0915405885E9340A109B109809307
:1017C000510590935205A0935305B0935405E4CF6F
:1017D000DF91CF911F910F91FF90EF90DF90CF900D
:1017E000BF90AF909F908F907F906F905F904F9041
:1017F0003F902F9008951F920F920FB60F921124D1
:101800002F933F938F939F93AF93BF938091C50581
:101810009091C605A091C705B091C8053091C90542
:1018200023E0230F2D3720F40196A11DB11D05C023
:1018300026E8230F0296A11DB11D2093C9058093B0
:10184000C5059093C605A093C705B093C8058091C0
:10185000CA059091CB05A091CC05B091CD0501961C
:10186000A11DB11D8093CA059093CB05A093CC0513
:10187000B093CD05BF91AF919F918F913F912F91E3
:101880000F900FBE0F901F901895CF93DF93CDB799
:10189000DEB7A2970FB6F894DEBF0FBECDBF789427
:1018A00084B5826084BD84B5816084BD85B5826065
:1018B00085BD85B5816085BD80916E008160809316
:1018C0006E0010928100809181008260809381007F
:1018D000809181008160809381008091800081608F
:1018E000809380008091B10084608093B1008091EA
:1018F000B00081608093B0008091910082608093FD
:10190000910080919100816080939100809190007E
:101910008160809390008091A10082608093A100FB
:101920008091A10081608093A1008091A0008160DE
:101930008093A00080912101826080932101809199
:101940002101816080932101809120018160809339
:10195000200180917A00846080937A0080917A00DF
:10196000826080937A0080917A00816080937A000F
:1019700080917A00806880937A001092C100E09193
:101980006F04F091700482E08083E0916B04F09129
:101990006C041082E0916D04F0916E048FEC8083F2
:1019A00010927704E0917304F091740486E08083D0
:1019B000E0917104F0917204808180618083E091F4
:1019C0007104F0917204808188608083E0917104D9
:1019D000F0917204808180688083E0917104F091BD
:1019E000720480818F7D8083F8DAF7DA88E0809353
:1019F000150560E08AE095E035D860E085E0B5DA6D
:101A000082E692E0B1DA60EA7FE080E090E0D7DD44
:101A100060E085E0AADA8AE692E0A6DA60EA7FE092
:101A200080E090E0CCDDCFDA60E081E09EDA83E711
:101A300092E09ADA60ED77E080E090E0C0DDC3DA12
:101A400060E083E092DA8BE792E08EDA60ED77E097
:101A500080E090E0B4DDB7DA60E083E086DA84E825
:101A600092E082DA60EA7FE080E090E0A8DDABDA25
:101A700060E080E07ADA8DE892E076DA61E080E09A
:101A800074DA8DE992E070DA412C57E8552E53E96B
:101A9000652E53E0752E42E9A42E45E0B42E21E0D8
:101AA0002093C2058FB7F8944091C5055091C605A3
:101AB0006091C7057091C8058FBF8091B205909164
:101AC000B305A091B405B091B505481B590B6A0B3D
:101AD0007B0B8091BE059091BF05A0E0B0E084171C
:101AE0009507A607B70708F001C110E08091BC0573
:101AF000181710F0312C3EC0E091B805F091B905EF
:101B0000E10FF11D62E08081F9DC1F5FEFCF022D54
:101B100010E0E091B805F091B905E00FF11F808168
:101B200097DC0C5F1F4F000F111FF801EA5AFA4FA4
:101B3000892B09F049C08081918188299929918355
:101B4000808323948091BC05281608F3E091BA05A0
:101B5000F091BB05EE0DFF1D61E08081A1DC80915D
:101B6000BA059091BB05FC01EE0DFF1D60E0808180
:101B7000C5DC33948091BD05381658F5E32CF12C63
:101B8000E091BA05F091BB05EE0DFF1D61E080818B
:101B9000B5DCE091BA05F091BB05EE0DFF1D60E0EC
:101BA00080817EDC81E090E0A0E0B0E0032C04C006
:101BB000880F991FAA1FBB1F0A94D2F74C016C0112
:101BC000C094D094212CBECF808191818C219D2105
:101BD000B6CF06E515E0F801878D90A1892B31F489
:101BE000148E8FEF9FEF968F858F11A23696AE16CB
:101BF000BF0691F7D12C8091BC05D81670F5C12C89
:101C0000ED2CF12CC701880F991FDC01A25ABA4FA5
:101C10007D012091BD05C216F0F4F701408151818C
:101C20000C2C02C0569547950A94E2F7642F617018
:101C3000D29E900111242C0D311DE6E5F5E080E0E7
:101C4000A58DB68D2A173B0709F4EEC48F5F369633
:101C50008A30B1F7CCC4D394CECF80E0D80191962E
:101C60009C91911181E00A5F1F4FA016B106B1F758
:101C70009FB7F8944091C5055091C6056091C7057E
:101C80007091C8059FBF4093B2055093B305609310
:101C9000B4057093B505882349F1809177058823B1
:101CA00029F180917505909176050197F9F480915D
:101CB00072058823E9F00091A9031091AA03F801A5
:101CC000EA55FC4F7F01808361E08CE0800F4DD9A5
:101CD00041E0D7016C918AE095E00E94AB050F5F6F
:101CE0001F4F1093AA030093A90302C01092C205CC
:101CF0008091A9039091AA0303970CF4D0CE86EAB1
:101D000093E04CD66B017C016093A2037093A30314
:101D10008093A4039093A50320E030E040EC5FE3C0
:101D2000E6D787FF15C04FD960E080E01ED989EA69
:101D300092E01AD968E873E180E090E040DC85E049
:101D400090E0909301028093000280E293E064C0EF
:101D500020E030E040EC5FE3C701B6010E94FD18CF
:101D600087FD1EC020E030E040E250E4C701B6012C
:101D7000BED71816ACF027D960E080E0F6D889EB22
:101D800092E0F2D868E873E180E090E018DC8AE045
:101D900090E0909301028093000280E496E03CC0C2
:101DA00020E030E040E250E4C701B6010E94FD1897
:101DB0001816F4F420E030E040E650E4C701B60124
:101DC00096D71816ACF0FFD860E080E0CED88AEC49
:101DD00092E0CAD868E873E180E090E0F0DB8FE041
:101DE00090E0909301028093000280E699E014C095
:101DF000EAD860E080E0B9D88BED92E0B5D868E829
:101E000073E180E090E0DBDB84E190E090930102FD
:101E10008093000280E89CE09093A1038093A0034C
:101E200020E030E040E253E46091A2037091A3030C
:101E30008091A4039091A503BFD74B015C016B8FE8
:101E40007C8F8D8F9E8F6091000270910102072E12
:101E5000000C880B990B51D79B01AC01C501B40153
:101E60000E9424180E9411180E948C186F8F78A36A
:101E700089A39AA32F8C38A088E790E0B1010E9433
:101E80000519072E000C880B990B37D76B017C01C5
:101E900024EB39E545ED5EE38FD70E9411186B8B7B
:101EA0007C8B8D8B9E8B26E233E545E15FE3C7019A
:101EB000B60182D70E9411186F8B788F898F9A8F05
:101EC0008091A0039091A10368EC70E00E94051935
:101ED000072E000C880B990B10D70E9411186B016C
:101EE0007C012B893C894D895E890E9424180E94BF
:101EF0008C187C8B6B8B2F89388D498D5A8DC7013F
:101F0000B6010E9424180E948C18788F6F8B5BD8C2
:101F100060E080E02AD88CEE92E026D861E080E094
:101F200024D88DEF92E020D8A5019401C501B40119
:101F30000E940119882319F087E093E019C0750108
:101F40006401E894F7F82FEF3FEF4FE75FE7C70131
:101F5000B6010E94011981110EC02FEF3FEF4FE72C
:101F60005FE7C701B601C3D618162CF48BE093E0E7
:101F70000E94A30771C02FEF3FEF4FE75FE4C50159
:101F8000B4010E94FD1818161CF48FE093E0F0CF06
:101F90002FEF3FEF4FE75FECC501B401A8D687FDF7
:101FA000F4CF20E030E0A901C501B401A0D687FF3D
:101FB0000DC041E06DE28AE095E00E94AB05D501DD
:101FC000C401B0588B8F9C8FAD8FBE8F2AE037ED48
:101FD00043EA5BE36B8D7C8D8D8D9E8DBED74B016F
:101FE0005C010E9491186B017C0185D69B01AC01BC
:101FF000C501B401B1D74B015C014AE0C701B6018C
:1020000078D841E06EE28AE095E00E94AB0520E0DE
:1020100030E040E251E4C501B401CED64B015C0191
:102020000E9491186B01E12CF12C4AE0C701B60126
:1020300060D8C701B6015FD69B01AC01C501B401F0
:102040008BD720E030E040E251E4B6D60E949118F0
:1020500080E090E04AE04DD883E193E00E94B4072D
:1020600068E873E180E090E0AADA0E94E30760E0AC
:1020700080E00E94B50786E193E00E94B40761E02A
:1020800080E00E94B5078F8D98A173D868E873E14E
:1020900080E090E094DA81E090E090939F03809359
:1020A0009E030CE11FEF80919E0390919F032816E1
:1020B00039060CF477C20E94E30760E080E00E94DA
:1020C000B50788E293E00E94B40761E080E00E94D7
:1020D000B50786E393E00E94B40761E08AE00E94BE
:1020E000B507B101CE01019688D860919E03709129
:1020F0009F03CE01079681D8CE010D962ED9BE0141
:10210000695F7F4FCE010D9667D860E473E00E944F
:102110009D04BE016F5F7F4F5FD856D8CE010D96EC
:102120004ED8CE0107964BD8CE01019648D82091C3
:102130004A0530914B05AB89BC89FFD69B01AC01A8
:10214000C301B2010E94181920934D0530934E052A
:1021500040934F055093500510925105109252052F
:10216000109253051092540562E08091A003909163
:10217000A1035DDA0E94E30760E080E00E94B507FA
:1021800083E493E00E94B40761E089E00E94B50710
:10219000B101CE01019631D860919E0370919F03E9
:1021A000CE0107962AD8CE010D96D7D8BE01695F19
:1021B0007F4FCE010D9610D860E473E00E949D041D
:1021C000BE016F5F7F4F08D80E94E408CE010D96D4
:1021D0000E94DF08CE0107960E94DF08CE0101961B
:1021E0000E94DF0810939D0300939C0320911C051F
:1021F00030911D05032E000C440B550BC301B20199
:102200000E943A19CA01B90128EE33E040E050E0DB
:102210000E943A19209318053093190540931A0526
:1022200050931B056CE17FEF86E195E00E94F60676
:1022300020914A0530914B05A3E2B0E07ED69B0188
:10224000AC01C301B201F4D720934D0530934E0584
:1022500040934F055093500510925105109252052E
:10226000109253051092540561E08091A003909163
:10227000A103DDD90E94E30760E080E00E94B5077A
:1022800084E593E00E94B40761E080E00E94B50716
:102290008EE493E00E94B40761E088E00E94B507F5
:1022A000B101CE0101960E94FD0860919E037091DC
:1022B0009F03CE0107960E94FD08CE010D964DD8D2
:1022C000BE01695F7F4FCE010D960E94EC0860E46D
:1022D00073E00E949D04BE016F5F7F4F0E94EC0877
:1022E0000E94E408CE010D960E94DF08CE010796F9
:1022F0000E94DF08CE0101960E94DF0820911C0594
:1023000030911D05032E000C440B550BC301B20187
:10231000B1D7CA01B90128EE33E040E050E0AAD7B6
:10232000209318053093190540931A0550931B0507
:1023300064EE70E086E195E00E94F60610939D033E
:1023400000939C032091360530913705032E000C35
:10235000440B550BC301B2018DD7CA01B90128EE58
:1023600033E040E050E086D72093320530933305C8
:1023700040933405509335056CE17FEF80E395E0A1
:102380000E94F60668EC70E080E090E018D9209199
:102390004A0530914B05A3E2B0E0CFD59B01AC01DB
:1023A000C301B20145D720934D0530934E054093AC
:1023B0004F055093500510925105109252051092FE
:1023C00053051092540562E08091A0039091A103FF
:1023D0002ED90E94E30760E080E00E94B50782E604
:1023E00093E00E94B40761E080E00E94B50783E7B4
:1023F00093E00E94B40761E08AE00E94B507B10152
:10240000CE0101960E94FD0860919E0370919F038A
:10241000CE0107960E94FD08CE010D960E94AD09DF
:10242000BE01695F7F4FCE010D960E94EC0860E40B
:1024300073E00E949D04BE016F5F7F4F0E94EC0815
:102440000E94E408CE010D960E94DF08CE01079697
:102450000E94DF08CE0101960E94DF0884EE90E022
:1024600090939D0380939C0320913605309137050E
:10247000032E000C440B550BC301B201FBD6CA015D
:10248000B90128EE33E040E050E0F4D62093320565
:1024900030933305409334055093350564EE70E076
:1024A00080E395E00E94F60620914A0530914B05A5
:1024B000AF89B88D42D59B01AC01C301B201B8D63A
:1024C00020934D0530934E0540934F055093500592
:1024D0001092510510925205109253051092540516
:1024E00061E08091A0039091A103A1D80E94E3072D
:1024F00060E080E00E94B5078BE793E00E94B4079C
:1025000061E080E00E94B50780E293E00E94B4079A
:1025100061E088E00E94B507B101CE0101960E94FA
:10252000FD0860919E0370919F03CE010D960E945D
:10253000FD0818861F821A8619861C861B866D85E3
:102540007E856115710531F049895A89CE0107965A
:102550000E94B4046CE873E0CE0107960E949D04CB
:10256000BE016F5F7F4F0E94EC080E94E408CE011D
:1025700007960E94DF08CE010D960E94DF08CE016B
:1025800001960E94DF0868E873E180E090E017D8C8
:1025900080919E0390919F03019690939F03809357
:1025A0009E0381CD0E94E30760E080E00E94B507B2
:1025B0008EE893E00E94B40761E080E00E94B507D6
:1025C00083E893E00E94B40761E089E00E94B507C8
:1025D00080919E0390919F030E94B90868E873E17F
:1025E00080E090E00E94DF0A0E94760254CA40FF19
:1025F0001DC0E6E5F5E080E090E0448D411118C093
:10260000E091B605F091B705E20FF31F408156E067
:10261000589FF001599FF00D1124EA5AFA4F448F48
:10262000368F258F10A2178E0E94B909C394F1CA64
:10263000019636968A30910501F7F8CFEF92FF9216
:102640000F931F93CF93DF93109262041092610453
:1026500088EE93E0A0E0B0E080936304909364047C
:10266000A0936504B09366042CE232E030936004DA
:1026700020935F0425EC30E030936C0420936B04CE
:1026800024EC30E030936E0420936D0420EC30E0B5
:102690003093700420936F0421EC30E03093720487
:1026A0002093710422EC30E030937404209373047F
:1026B00026EC30E030937604209375041092780471
:1026C0001092790410927A0410927B041092FF0405
:1026D0001092FE048093000590930105A0930205DB
:1026E000B09303058EE392E09093FD048093FC0485
:1026F000109209051092580510925C0510925B0526
:1027000010925D058CE592E09093570580935605F5
:10271000E6E5F5E0148E10A2178E11A2369685E03C
:10272000E239F807B9F786E092E09093B905809313
:10273000B80582E092E09093BB058093BA05C4E0AF
:10274000C093BC05C093BD058AE092E09093B705A5
:102750008093B6058AE090E09093BF058093BE0514
:1027600084EF91E09093C1058093C0051092C40559
:102770001092C3051092B2051092B3051092B405E1
:102780001092B5051092C20561E08CE00E947E0AAD
:1027900061E087E00E947E0A61E088E00E947E0A94
:1027A00061E084E00E947E0A109208050E947C0786
:1027B00060E087E00E94500A08EC10E010934B059F
:1027C00000934A0582E080934C05109255050E94C3
:1027D0007C0761E085E00E947E0A61E086E00E945D
:1027E0007E0A61E085E00E94500A61E086E00E9476
:1027F000500A8091A00081688093A000D9E0D09316
:10280000A1001092A9001092A80061E086E00E9449
:102810007E0A80919000816880939000D09391000F
:10282000109299001092980061E085E00E947E0A63
:102830008FEF90E09093A9008093A8009093990067
:102840008093980010923B0510923A051092310542
:1028500010923005109246051092470510924805D7
:1028600010924905109337050093360586E190E0F4
:1028700090933D0580933C058AE190E090933F055D
:1028800080933E0588E190E0909341058093400558
:102890008CE190E0909343058093420561E086E1EE
:1028A0000E947E0A61E080913E050E947E0A61E0FE
:1028B000809140050E947E0A61E0809142050E945D
:1028C0007E0A109245051092440584E0E82EF12C12
:1028D000F0923905E09238051092210510922005FA
:1028E000109217051092160510922C0510922D05C6
:1028F00010922E0510922F0510931D0500931C05B4
:102900008FE190E0909323058093220583E290E08D
:10291000909325058093240581E290E0909327050C
:102920008093260585E290E0909329058093280501
:1029300061E08FE10E947E0A61E0809124050E949F
:102940007E0A61E0809126050E947E0A61E0809106
:1029500028050E947E0A10922B0510922A05F092FB
:102960001F05E0921E0510920D0510920C0580E5E2
:1029700092E090930B0580930A0587E280930E0501
:1029800084E180931305C093140510921505DF911F
:10299000CF911F910F91FF90EF90089566277727B1
:1029A00023C0BB274A3031F4992322F4BDE290952D
:1029B00081959F4F01C0BB27FB015527AA27880F90
:1029C000991FAA1FA41710F0A41B83955051B9F7A3
:1029D000A05DAA3308F0A95DA193009779F7B11122
:1029E000B1931192CB0173C18F929F92AF92BF921C
:1029F000CF92DF92EF92FF920F931F93CF93DF93CB
:102A0000EC016B016115710519F0FB019183808365
:102A10007E01FFEFEF1AFF0A0881802F90E037D187
:102A2000892B11F0E701F4CF0D3239F47E0182E0F9
:102A3000E80EF11C098111E008C00B3229F47E0177
:102A400092E0E90EF11C098110E0E701219743E0D3
:102A500050E064E371E0CE0122D1892BB9F42396D2
:102A600045E050E06FE271E0CE0119D1892B09F405
:102A70002596C114D10419F0F601D183C083111138
:102A8000F0C060E070E080E89FE7F4C043E050E011
:102A90006CE271E0CE0103D1892B59F4C114D10449
:102AA00009F4E4C0F2E0EF0EF11CF601F182E082DD
:102AB000DDC020E030E0A901C0E0D0E0F70160ED2A
:102AC000A62EA00E89E08A1528F1912F9260B92ECA
:102AD000812F887012FF04C0811123C0219621C06C
:102AE00081112197A5E0B0E01ED2DC01CB01880F57
:102AF000991FAA1FBB1F9C01AD012A0D311D411D4D
:102B0000511D283989E93807480789E1580748F0F5
:102B1000166006C09EEFA9120AC013FD40C01860DF
:102B2000B12E8FEFE81AF80A00811B2DC7CF802F36
:102B30008F7D8534A1F580818D3211F4106106C03E
:102B40008B3221F0319661E070E004C081813296D1
:102B500062E070E080538A3018F0E61BF70B1FC06C
:102B600060E070E060389CE079075CF4DB01AA0F5C
:102B7000BB1FAA0FBB1F6A0F7B1F660F771F680F53
:102B8000711D3196DF0111978C9180538A3050F37B
:102B900014FF03C0719561957109C60FD71F11FF0E
:102BA00008C0C114D10429F0CF010197F601918327
:102BB0008083CA01B9019FD0212F2370233019F0DF
:102BC0004B015C0106C04B015C01B7FAB094B7F849
:102BD000B09420E030E0A901C501B40188D0882379
:102BE00009F43CC0D7FF06C0D195C195D1090BE4CB
:102BF00011E002C003E611E06801F8E1CF1AD10844
:102C000090E2E92EF12CCE15DF056CF0F80125914C
:102C1000359145915491C501B401CED04B015C0171
:102C2000CE19DF09F0CF04501109F594E7940C1583
:102C30001D0549F78A2D880F8B2D881F8F3F41F086
:102C400020E030E0A901C501B40151D0811106C0D6
:102C500082E290E09093CF058093CE05C501B40148
:102C600009C060E070E080E89FEF04C060E070E0C1
:102C700080EC9FE7DF91CF911F910F91FF90EF9034
:102C8000DF90CF90BF90AF909F908F90089591115B
:102C9000F6C0803219F089508550D0F70895FB01B5
:102CA000DC014150504088F08D9181341CF08B350F
:102CB0000CF4805E659161341CF06B350CF4605E41
:102CC000861B611171F3990B0895881BFCCFDC0101
:102CD000FC01672F71917723E1F7329704C07C9153
:102CE0006D9370836291AE17BF07C8F3089540D00B
:102CF00008F481E00895E89409C097FB3EF49095AC
:102D00008095709561957F4F8F4F9F4F9923A9F0C4
:102D1000F92F96E9BB279395F69587957795679553
:102D2000B795F111F8CFFAF4BB0F11F460FF1BC097
:102D30006F5F7F4F8F4F9F4F16C0882311F096E92A
:102D400011C0772321F09EE8872F762F05C06623D8
:102D500071F096E8862F70E060E02AF09A95660F91
:102D6000771F881FDAF7880F9695879597F908954A
:102D7000990F0008550FAA0BE0E8FEEF161617068C
:102D8000E807F907C0F012161306E407F50798F0F4
:102D9000621B730B840B950B39F40A2661F0232B0D
:102DA000242B252B21F408950A2609F4A140A69589
:102DB0008FEF811D811D08950BD07BC06CD028F052
:102DC00071D018F0952309F05DC062C01124A5C030
:102DD00081D0A0F3959FD1F3950F50E0551F629FCE
:102DE000F001729FBB27F00DB11D639FAA27F00D64
:102DF000B11DAA1F649F6627B00DA11D661F829F8B
:102E00002227B00DA11D621F739FB00DA11D621F6F
:102E1000839FA00D611D221F749F3327A00D611D8C
:102E2000231F849F600D211D822F762F6A2F11246E
:102E30009F5750408AF0E1F088234AF0EE0FFF1FC1
:102E4000BB1F661F771F881F91505040A9F79E3FF8
:102E5000510570F017C061C05F3FECF3983EDCF3A2
:102E6000869577956795B795F795E7959F5FC1F735
:102E7000FE2B880F911D9695879597F908959927B0
:102E80008827089597F99F6780E870E060E00895CB
:102E90009FEF80EC089500240A9416161706180672
:102EA0000906089500240A9412161306140605064E
:102EB0000895092E0394000C11F4882352F0BB0FDF
:102EC00040F4BF2B11F460FF04C06F5F7F4F8F4F42
:102ED0009F4F089557FD9058440F551F59F05F3F7D
:102EE00071F04795880F97FB991F61F09F3F79F02C
:102EF00087950895121613061406551FF2CF4695AE
:102F0000F1DF08C0161617061806991FF1CF86952F
:102F10007105610508940895E894BB276627772713
:102F2000CB0197F9089509D0A59F900DB49F900DFE
:102F3000A49F800D911D11240895A29FB001B39FFD
:102F4000C001A39F700D811D1124911DB29F700DB2
:102F5000811D1124911D08955058BB27AA270ED01A
:102F6000A8CF99DF30F09EDF20F031F49F3F11F4BD
:102F70001EF48ECF0EF4E095E7FB84CFE92FAADF95
:102F800080F3BA17620773078407950718F071F486
:102F90009EF5C2CF0EF4E0950B2EBA2FA02D0B019B
:102FA000B90190010C01CA01A0011124FF27591B8E
:102FB00099F0593F50F4503E68F11A16F040A22F94
:102FC000232F342F4427585FF3CF46953795279505
:102FD000A795F0405395C9F77EF41F16BA0B620B04
:102FE000730B840BBAF09150A1F0FF0FBB1F661F4B
:102FF000771F881FC2F70EC0BA0F621F731F841F8E
:1030000048F4879577956795B795F7959E3F08F0B3
:10301000B3CF9395880F08F09927EE0F9795879572
:103020000895D4D080F09F3740F491110EF475CFFD
:1030300060E070E080E89FE3089526F01B16611DB4
:10304000711D811D9AC0B4C00CD033CF2BDF40F06E
:1030500022DF30F021F45F3F19F014CF51115DCF22
:1030600017CF38DF98F39923C9F35523B1F3951B94
:10307000550BBB27AA2762177307840738F09F5F99
:103080005F4F220F331F441FAA1FA9F333D00E2E08
:103090003AF0E0E830D091505040E695001CCAF775
:1030A00029D0FE2F27D0660F771F881FBB1F26173A
:1030B00037074807AB07B0E809F0BB0B802DBF010D
:1030C000FF2793585F4F2AF09E3F510568F0DACEF4
:1030D00024CF5F3FECF3983EDCF3869577956795B8
:1030E000B795F7959F5FC9F7880F911D96958795BE
:1030F00097F90895E1E0660F771F881FBB1F6217DD
:1031000073078407BA0720F0621B730B840BBA0B9A
:10311000EE1F88F7E095089504D06894B111FDCEB4
:103120000895E0DE88F09F5790F0B92F9927B751A6
:10313000A0F0D1F0660F771F881F991F1AF0BA957B
:10314000C9F712C0B13081F0E7DEB1E00895E4CEF6
:10315000672F782F8827B85F39F0B93FCCF3869571
:1031600077956795B395D9F73EF4909580957095CE
:1031700061957F4F8F4F9F4F0895882371F4772378
:1031800021F09850872B762F07C0662311F49927DA
:103190000DC09051862B70E060E02AF09A95660F82
:1031A000771F881FDAF7880F9695879597F9089506
:1031B0009F3F31F0915020F4879577956795B795AB
:1031C000880F911D9695879597F908958BDEA0F04D
:1031D000BEE7B91788F4BB279F3860F41616B11DF7
:1031E000672F782F8827985FF7CF86957795679513
:1031F000B11D93959639C8F30895BADD08F48FEFA1
:103200000895B6DD880B990B089597FB072E16F4E9
:10321000009406D077FD08D051D007FC05D03EF4CD
:10322000909581959F4F0895709561957F4F089572
:10323000A1E21A2EAA1BBB1BFD010DC0AA1FBB1FBA
:10324000EE1FFF1FA217B307E407F50720F0A21B2C
:10325000B30BE40BF50B661F771F881F991F1A9499
:1032600069F760957095809590959B01AC01BD01C3
:10327000CF010895052E97FB16F400940FD057FD4B
:1032800005D0D6DF07FC02D046F408C05095409523
:10329000309521953F4F4F4F5F4F08959095809502
:1032A000709561957F4F8F4F9F4F0895EE0FFF1FD1
:1032B000881F8BBF0790F691E02D1994AA1BBB1BAA
:1032C00051E107C0AA1FBB1FA617B70710F0A61B26
:1032D000B70B881F991F5A95A9F780959095BC0147
:1032E000CD0108950F931F93CF93DF938230910503
:1032F00010F482E090E0E091D205F091D30520E057
:1033000030E0A0E0B0E0309719F1408151810281B6
:10331000138148175907C8F08417950769F4109767
:1033200031F012960C93129713961C9327C00093BA
:10333000D2051093D30522C02115310519F042178B
:10334000530718F49A01BD01EF01DF01F801DBCF4B
:1033500021153105F9F0281B390B2430310580F493
:103360008A819B816115710521F0FB019383828322
:1033700004C09093D3058093D205FE01329644C0D9
:10338000FE01E20FF31F819391932250310939839B
:1033900028833AC02091D0053091D105232B41F4E8
:1033A00020911C0230911D023093D1052093D0054D
:1033B00020911A0230911B022115310541F42DB7DD
:1033C0003EB740911E0250911F02241B350BE09125
:1033D000D005F091D105E217F307A0F42E1B3F0BA7
:1033E0002817390778F0AC014E5F5F4F2417350777
:1033F00048F04E0F5F1F5093D1054093D005819345
:10340000919302C0E0E0F0E0CF01DF91CF911F91F6
:103410000F910895CF93DF93009709F481C0FC01C9
:10342000329713821282A091D205B091D3051097E2
:1034300081F420813181820F931F2091D00530913A
:10344000D1052817390751F5F093D105E093D00540
:1034500067C0ED0120E030E0CE17DF0740F44A817D
:103460005B819E0141155105F1F0EA01F5CFD3834F
:10347000C28340815181840F951FC817D90759F421
:1034800088819981840F951F0296918380838A8118
:103490009B81938382832115310529F4F093D30511
:1034A000E093D2053DC0E901FB83EA83499159913C
:1034B000C40FD51FEC17FD0761F480819181840F43
:1034C000951F0296E90199838883828193819B836A
:1034D0008A83E0E0F0E012968D919C91139700971B
:1034E00019F0FD01DC01F7CF8D919C9111979D01A1
:1034F0002E5F3F4F820F931F2091D0053091D10551
:103500002817390769F4309729F41092D3051092DF
:10351000D20502C013821282B093D105A093D005C8
:10352000DF91CF9108956F927F928F929F92AF9289
:10353000BF92CF92DF92EF92FF920F931F93CF93A0
:10354000DF93009781F4CB01DF91CF911F910F9111
:10355000FF90EF90DF90CF90BF90AF909F908F90B3
:103560007F906F90BFCEFC01E60FF71F9C012250A9
:103570003109E217F30708F4A5C0EC01D9010D9158
:103580001C91119706171707A8F00530110508F4CC
:1035900097C0C80104978617970708F491C0025096
:1035A0001109061B170B019311936D937C93CF01A7
:1035B00031DF86C05B01A01AB10A4C01800E911E5A
:1035C000A091D205B091D305612C712CE12CF12C86
:1035D000109709F446C08D919C911197A815B905D3
:1035E000B1F56C0142E0C40ED11CCA14DB0478F1C1
:1035F0004C018A189B08640142E0C40ED11C12964B
:10360000BC9012971396AC91B5E0CB16D10440F064
:10361000B282A38391828082D9016D937C9309C089
:103620000E5F1F4F800F911FF90191838083EB2D57
:10363000FA2FE114F10431F0D7011396FC93EE93C5
:1036400012973EC0F093D305E093D20539C06816B7
:10365000790608F43C017D0112960D90BC91A02DD5
:10366000B7CF8091D0059091D10588169906E1F4E5
:1036700066167706C8F480911A0290911B02009793
:1036800041F48DB79EB740911E0250911F02841BDA
:10369000950BE817F907B0F4F093D105E093D00546
:1036A000F901718360830CC0CB011CDE7C010097A3
:1036B00049F0A801BE011BD0CE01ACDEC70104C099
:1036C000CE0102C080E090E0DF91CF911F910F9179
:1036D000FF90EF90DF90CF90BF90AF909F908F9032
:1036E0007F906F90089581E090E0F89410C0FB0106
:1036F000DC0102C001900D9241505040D8F708956E
:10370000FB01DC0101900D920020E1F70895F8948F
:02371000FFCFE9
:103712000F002A28262432302E2C31323341343500
:103722003642373839432E3023440000D405800016
:10373200000040001400540000000000090277015C
:10374200A1015502D201B001C401000000003A03F8
:103752000E036903E2020603F202E3020000000024
:10376200C005770169036803000000005B0497034A
:10377200950357454C434F4D4500414E4554203427
:103782002E3000414D45594157200042414E444F91
:103792004D412000616E642043414E4E00496E70DF
:1037A200757420776569676874206F66006261626C
:1037B2007920696E206B673A0055736520356D6C10
:1037C20020737972696E6765005573652031306DBB
:1037D2006C20737972696E676500557365203135A7
:1037E2006D6C20737972696E67650055736520325E
:1037F200306D6C20737972696E676500546F746105
:103802006C20766F6C756D6520666F7200657863EB
:1038120068616E67653A006E616E00696E66006F80
:103822007666006D6C004E756D626572206F662063
:103832006379636C65733A0044726177696E6720DD
:10384200626C6F6F640066726F6D206261627900F4
:103852002F430044697363617264696E6720626C0E
:103862006F6F640044726177696E67206672657378
:10387200680044656C69766572696E6720626C6F78
:103882006F6400746F2062616279004E756D622010
:103892006F6620636F6D706C657465002F005472E3
:0C38A200616E73667573696F6E20000024
:020000023000CC
:10E000000D9489F10D94B2F10D94B2F10D94B2F129
:10E010000D94B2F10D94B2F10D94B2F10D94B2F1F0
:10E020000D94B2F10D94B2F10D94B2F10D94B2F1E0
:10E030000D94B2F10D94B2F10D94B2F10D94B2F1D0
:10E040000D94B2F10D94B2F10D94B2F10D94B2F1C0
:10E050000D94B2F10D94B2F10D94B2F10D94B2F1B0
:10E060000D94B2F10D94B2F10D94B2F10D94B2F1A0
:10E070000D94B2F10D94B2F10D94B2F10D94B2F190
:10E080000D94B2F10D94B2F10D94B2F10D94B2F180
:10E090000D94B2F10D94B2F10D94B2F10D94B2F170
:10E0A0000D94B2F10D94B2F10D94B2F10D94B2F160
:10E0B0000D94B2F10D94B2F10D94B2F10D94B2F150
:10E0C0000D94B2F10D94B2F10D94B2F10D94B2F140
:10E0D0000D94B2F10D94B2F10D94B2F10D94B2F130
:10E0E0000D94B2F141546D656761323536300041AF
:10E0F000726475696E6F206578706C6F72657220DE
:10E1000073746B3530305632206279204D4C530099
:10E11000426F6F746C6F616465723E004875683F52
:10E1200000436F6D70696C6564206F6E203D200048
:10E130004350552054797065202020203D20005FF9
:10E140005F4156525F415243485F5F3D2000415658
:10E1500052204C696243205665723D20004743437C
:10E160002056657273696F6E203D20004350552024
:10E1700049442020202020203D20004C6F7720663D
:10E18000757365202020203D20004869676820665F
:10E190007573652020203D200045787420667573D6
:10E1A00065202020203D20004C6F636B2066757336
:10E1B000652020203D20004D617220203720323024
:10E1C000313300312E362E3800342E332E350056A2
:10E1D00023202020414444522020206F7020636F70
:10E1E00064652020202020696E73747275637469E1
:10E1F0006F6E2061646472202020496E74657272B3
:10E20000757074006E6F20766563746F7200726A49
:10E210006D702020006A6D70200057686174207056
:10E220006F72743A00506F7274206E6F7420737541
:10E2300070706F72746564004D7573742062652030
:10E2400061206C6574746572002000577269747483
:10E25000696E672045450052656164696E672045B7
:10E26000450045452065727220636E743D00504F35
:10E27000525400303D5A65726F2061646472003FF1
:10E280003D43505520737461747300403D454550C3
:10E29000524F4D207465737400423D426C696E6B41
:10E2A000204C454400453D44756D70204545505215
:10E2B0004F4D00463D44756D7020464C415348001B
:10E2C000483D48656C70004C3D4C69737420492F83
:10E2D0004F20506F72747300513D51756974005234
:10E2E0003D44756D702052414D00563D73686F7707
:10E2F00020696E7465727275707420566563746FF0
:10E30000727300593D506F727420626C696E6B00BD
:10E310002A0011241FBECFEFD1E2DEBFCDBF01E046
:10E320000CBF12E0A0E0B2E0EEE1FDEF03E00BBFB6
:10E3300002C007900D92A030B107D9F712E0A0E01B
:10E34000B2E001C01D92AE30B107E1F70F9460F367
:10E350000D948DFE01E20EBF0FEF0DBF11241FBE05
:10E360000D9460F30D9400F020E030E040ED57E0B4
:10E3700005C0FA013197F1F72F5F3F4F2817390792
:10E38000C0F308959C01260F311DC901A0E0B0E043
:10E390002F5F3F4FABBFFC018791882361F08093D3
:10E3A000C6008091C00086FFFCCF8091C0008064D1
:10E3B0008093C000EACF08958DE08093C6008091DD
:10E3C000C00086FFFCCF8091C00080648093C000B5
:10E3D0008AE08093C6008091C00086FFFCCF8091C8
:10E3E000C00080648093C00008950F94C2F10F9420
:10E3F000DCF10895FC019081992359F09093C600B7
:10E400008091C00086FFFCCF8091C0008064809323
:10E41000C0003196992379F70895282F982F929567
:10E420009F70892F805D8A3308F0895F8093C600D2
:10E430008091C00086FFFCCF8091C00080648093F3
:10E44000C000822F8F70982F905D9A3308F0995FEB
:10E450009093C6008091C00086FFFCCF8091C000E1
:10E4600080648093C00008959C01FB01853691056E
:10E470001CF46330710594F0C90164E670E00F94F8
:10E480002EFE605D7F4F6093C6008091C00086FFC6
:10E49000FCCF8091C00080648093C0002B30310598
:10E4A00014F43297B4F0C90164E670E00F942EFEC4
:10E4B0006AE070E00F942EFE605D7F4F6093C600AF
:10E4C0008091C00086FFFCCF8091C0008064809363
:10E4D000C000C9016AE070E00F942EFEC0968093E0
:10E4E000C6008091C00086FFFCCF8091C000806490
:10E4F0008093C00008951F93182F8EE692EE60E07F
:10E500000F94C2F11093C6008091C00086FFFCCF2B
:10E510008091C00080648093C0000F94DCF11F9153
:10E5200008952F923F924F925F926F927F928F92B7
:10E530009F92AF92BF92CF92DF92EF92FF920F9392
:10E540001F93DF93CF93CDB7DEB762970FB6F894E2
:10E55000DEBF0FBECDBF382E622ECA01DB015C01CB
:10E560006D01772420E2222E2E010894411C511CBB
:10E570008BC081E0A81680E0B80681E0C80680E084
:10E58000D80628F0C601AA27BB270F940DF2BB2797
:10E59000AD2D9C2D8B2D0F940DF28A2D0F940DF225
:10E5A0002092C6008091C00086FFFCCF8091C00001
:10E5B00080648093C0009DE29093C6008091C0006B
:10E5C00086FFFCCF8091C00080648093C0002092C1
:10E5D000C6008091C00086FFFCCF8091C00080649F
:10E5E0008093C00019828601750188249924A1E0D6
:10E5F0003A1651F03A1620F0B2E03B1661F409C029
:10E600000BBFF701779007C0C7010F9477FE782EF4
:10E6100002C0F7017080872D0F940DF22092C60082
:10E620008091C00086FFFCCF8091C0008064809301
:10E63000C000872D8052F401EF70F0708F3520F408
:10E64000E40DF51D708204C0E40DF51D8EE280839B
:10E650000894E11CF11C011D111D0894811C911CE2
:10E6600090E18916910409F0C2CF80E190E0A0E02A
:10E67000B0E0A80EB91ECA1EDB1E198AC2010F9493
:10E68000FAF10F94DCF16A94662009F072CF629679
:10E690000FB6F894DEBF0FBECDBFCF91DF911F91B3
:10E6A0000F91FF90EF90DF90CF90BF90AF909F9031
:10E6B0008F907F906F905F904F903F902F90089534
:10E6C0002F923F924F925F926F927F928F929F9282
:10E6D000AF92BF92CF92DF92EF92FF920F931F9370
:10E6E000DF93CF93CDB7DEB7CD53D1400FB6F894BB
:10E6F000DEBF0FBECDBF01E20EBF0FEF0DBF94B75F
:10E70000F894A89514BE80916000886180936000A1
:10E7100010926000789493FF05C0E0910002F091A0
:10E7200001021995279A2F9A8091C00082608093E8
:10E73000C00080E18093C40088E18093C1000000A4
:10E74000EE24FF24870144E0A42EB12CCC24DD2448
:10E7500024C0C5010197F1F70894E11CF11C011DCB
:10E76000111D21E2E2162EE4F20620E0020720E06D
:10E77000120718F031E0C32ED12CC801B70127ECE5
:10E780003BE140E050E00F9441FE611571058105C9
:10E79000910519F485B1805885B98091C00087FD35
:10E7A00003C0C114D104A9F2A6014F5F5F4FC25E3E
:10E7B000DE4F59834883CE51D140C25EDE4F8881FF
:10E7C0009981CE51D140019711F00D9410FEC05D9A
:10E7D000DE4F19821882C053D14060E0C15DDE4F28
:10E7E0001882CF52D14088249924C35DDE4F19820C
:10E7F0001882CD52D140C05EDE4F188219821A8233
:10E800001B82C052D140CE5CDE4F188219821A8220
:10E810001B82C253D140EE24FF2487010BBFF701B6
:10E8200007911691C45CDE4F19830883CC53D14005
:10E830000D940BFEC25EDE4F28813981CE51D1404E
:10E840002130310509F52091C600C25EDE4F1982E4
:10E850001882CE51D14022C02F5F3F4F4F4F5F4FA4
:10E86000213082E138078AE7480780E0580780F0C6
:10E87000C45CDE4FE881F981CC53D140EF5FFF4F9C
:10E8800019F0EE27FF27099420E030E040E050E047
:10E890008091C00087FFE0CF2091C600C35DDE4FAE
:10E8A00048815981CD52D1404F5F5F4FC35DDE4FEC
:10E8B00059834883CD52D140213209F063C64A3092
:10E8C000510508F05FC60894811C911C53E0851621
:10E8D000910409F059C600E010E018C081E280936D
:10E8E000C6008091C00086FFFCCF8091C00080648C
:10E8F0008093C0002F5F3F4F2931310579F70F9486
:10E90000DCF10F5F1F4F0530110519F020E030E0FA
:10E91000E5CF10920A0210920B0210920C02109294
:10E920000D02109206021092070210920802109235
:10E930000902109202021092030210920402109235
:10E9400005028FEE90EE60E00F94F5F180E191EE1C
:10E9500060E00F94C2F18091C00087FFFCCF9091DE
:10E96000C600903608F09F759032B8F09093C600BC
:10E970008091C00086FFFCCF8091C00080648093AE
:10E98000C000A0E2A093C6008091C00086FFFCCF2B
:10E990008091C00080648093C000983409F4D7C18E
:10E9A0009934B8F4923409F459C1933458F490333B
:10E9B00019F1903308F4E3C59F33A1F1903409F0C5
:10E9C000DEC5BDC0953409F470C1963409F0D7C5D1
:10E9D00098C1923509F42BC2933538F49C3409F46C
:10E9E000F5C1913509F0CBC518C2963509F445C279
:10E9F000993509F0C4C567C483E792EE62E00F94CD
:10EA0000F5F110920602109207021092080210927D
:10EA1000090210920A0210920B0210920C0210923C
:10EA20000D0213C18FE792EE62E00F94F5F18FEEC5
:10EA300090EE60E00F94F5F181E291EE60E00F94CA
:10EA4000C2F187EB91EE60E00F94F5F180E391EE77
:10EA500060E00F94C2F184EE90EE60E00F94F5F167
:10EA60008FE391EE60E00F94C2F186E090E061E008
:10EA700070E00F9434F20F94DCF18DE591EE60E0DC
:10EA80000F94C2F189EC91EE60E00F94F5F18EE401
:10EA900091EE60E00F94C2F183EC91EE60E00F9490
:10EAA000F5F18CE691EE60E00F94C2F18EE10F94E7
:10EAB0000DF288E90F940DF281E00F940DF20F949E
:10EAC000DCF18BE791EE60E00F94C2F119E0E0E039
:10EAD000F0E010935700E4918E2F0F940DF20F94F5
:10EAE000DCF18AE891EE60E00F94C2F1E3E0F0E03F
:10EAF00010935700E4918E2F0F940DF20F94DCF1D8
:10EB000089E991EE60E00F94C2F1E2E0F0E0109349
:10EB10005700E4918E2F0F940DF20F94DCF188EAE8
:10EB200091EE60E00F94C2F1E1E0F0E01093570045
:10EB30001491812F0F940DF20F94DCF107CF8BE825
:10EB400092EE62E00F94F5F18BE492EE60E00F94A8
:10EB5000F5F10F94DCF100E010E019C0C8016F2D51
:10EB60000F947FFEFF2031F489E492EE60E00F9471
:10EB7000C2F10BC0F092C6008091C00086FFFCCFAE
:10EB80008091C00080648093C0000F5F1F4FC80158
:10EB900081519F41A0E0B0E0ABBFFC01F790BAE229
:10EBA000FB1621F0E2E000301E07C1F60F94DCF105
:10EBB0000F94DCF187E592EE60E00F94F5F10F948D
:10EBC000DCF1CC24DD2400E010E01EC0C8010F946D
:10EBD00077FEF82E882331F489E492EE60E00F94FA
:10EBE000C2F10BC08093C6008091C00086FFFCCFAD
:10EBF0008091C00080648093C000FE1419F00894D6
:10EC0000C11CD11C0F5F1F4FC80181519F41A0E063
:10EC1000B0E0ABBFFC01E790FAE2EF1621F022E092
:10EC20000030120799F60F94DCF10F94DCF182E6C4
:10EC300092EE60E00F94C2F1C60161E070E00F94C3
:10EC400034F20F94DCF10F94DCF110920202109276
:10EC50000302109204021092050278CE89E992EE26
:10EC600062E00F94F5F1279A2F9A16C02F9880E052
:10EC700090E0E0EDF7E03197F1F7019684369105E9
:10EC8000C1F72F9A80E090E0E0EDF7E03197F1F7DF
:10EC9000019684369105C1F78091C00087FFE6CFC9
:10ECA0008091C00087FFFCCF64C485EA92EE62E0E9
:10ECB0000F94F5F140910202509103026091040219
:10ECC0007091050281E020E10F9491F2809102029F
:10ECD00090910302A0910402B091050280509F4FD1
:10ECE000AF4FBF4F8093020290930302A0930402A0
:10ECF000B093050280509041A040B04008F426CE69
:10ED0000A4CF83EB92EE62E00F94F5F140910602FE
:10ED100050910702609108027091090280E020E1A1
:10ED20000F9491F28091060290910702A09108023F
:10ED3000B091090280509F4FAF4FBF4F80930602A2
:10ED400090930702A0930802B0930902FFCD80ECD4
:10ED500092EE62E00F94F5F183E792EE60E00F949B
:10ED6000F5F18FE792EE60E00F94F5F18BE892EE0B
:10ED700060E00F94F5F189E992EE60E00F94F5F10F
:10ED800085EA92EE60E00F94F5F183EB92EE60E09D
:10ED90000F94F5F180EC92EE60E00F94F5F187ECC2
:10EDA00092EE60E00F94F5F188ED92EE60E00F9442
:10EDB000F5F18FED92EE60E00F94F5F18AEE92EEB0
:10EDC00060E00F94F5F183E093EEBDCD87EC92EE19
:10EDD00062E00F94F5F181E40F947BF282E40F94EA
:10EDE0007BF283E40F947BF284E40F947BF285E45E
:10EDF0000F947BF286E40F947BF287E40F947BF20E
:10EE000088E40F947BF28AE40F947BF28BE40F94F6
:10EE10007BF28CE40F947BF299CD88ED92EE62E068
:10EE20000F94F5F1772473948824992409C48FED05
:10EE300092EE62E00F94F5F140910A0250910B02BC
:10EE400060910C0270910D0282E020E10F9491F22A
:10EE500080910A0290910B02A0910C02B0910D02D8
:10EE600080509F4FAF4FBF4F80930A0290930B0289
:10EE7000A0930C02B0930D0269CD8AEE92EE62E08F
:10EE80000F94F5F184EE90EE60E00F94F5F18FECC5
:10EE900091EE60E00F94F5F1662477244301CC5D98
:10EEA000DE4F19821882C452D140D401C301B695F5
:10EEB000A79597958795CA5DDE4F88839983AA8326
:10EEC000BB83C652D140CC5DDE4FA881B981C4520C
:10EED000D1401196CC5DDE4FB983A883C452D14096
:10EEE000CD0162E070E00F9434F2B0E2B093C6005E
:10EEF0008091C00086FFFCCF8091C0008064809329
:10EF0000C000EDE2E093C6008091C00086FFFCCF18
:10EF10008091C00080648093C000F0E2F093C6004E
:10EF20008091C00086FFFCCF8091C00080648093F8
:10EF3000C000CA5DDE4FE880F9800A811B81C6529D
:10EF4000D140BB27A12F902F8F2D0F940DF2CA5DBA
:10EF5000DE4F8881C652D1400F940DF2B0E2FB2EF5
:10EF6000F092C6008091C00086FFFCCF8091C00067
:10EF700080648093C0000DE30093C6008091C000C0
:10EF800086FFFCCF8091C00080648093C00010E2B7
:10EF90001093C6008091C00086FFFCCF8091C00016
:10EFA00080648093C0008BBEF3012791C65DDE4F65
:10EFB0002883CA52D140A22EBB24CC24DD2408943D
:10EFC000611C711C811C911C8BBEF3018791282E42
:10EFD0003324442455240894611C711C811C911C09
:10EFE0008BBEF3013791C55DDE4F3883CB52D140E4
:10EFF0000894611C711C811C911C8BBEF30147910C
:10F00000C45DDE4F4883CC52D140ADEFEA2EAFEF66
:10F01000FA2EAFEF0A2FAFEF1A2F6E0C7F1C801E57
:10F02000911E142D032DF22CEE24EA0CFB1C0C1D5A
:10F030001D1D0F940DF220E22093C6008091C000A8
:10F0400086FFFCCF8091C00080648093C000C65DC5
:10F05000DE4F8881CA52D1400F940DF230E23093D6
:10F06000C6008091C00086FFFCCF8091C000806404
:10F070008093C000C45DDE4F8881CC52D1400F9494
:10F080000DF240E24093C6008091C00086FFFCCFA5
:10F090008091C00080648093C000C55DDE4F888190
:10F0A000CB52D1400F940DF250E25093C6008091A4
:10F0B000C00086FFFCCF8091C00080648093C000B8
:10F0C0008FEFE8168FEFF80680E0080780E018075A
:10F0D00031F484E092EE60E00F94C2F1DFC0D80119
:10F0E000C7018070907CA070B0708050904CA040A0
:10F0F000B040D1F52FEF3FE340E050E0E222F322B1
:10F1000004231523CA5DDE4FA880B980CA80DB8046
:10F11000C652D140AE0CBF1CC01ED11EAA0CBB1CD7
:10F12000CC1CDD1C8EE092EE60E00F94C2F1BB2798
:10F13000A12F902F8F2D0F940DF28E2D0F940DF285
:10F1400030E23093C6008091C00086FFFCCF8091F2
:10F15000C00080648093C0004EE34093C60080915D
:10F16000C00086FFFCCF87C08EE09EEFA0E0B0E03D
:10F17000E822F9220A231B239CE0E91694E9F90608
:10F1800090E0090790E0190709F088C0C45DDE4FE0
:10F19000A881CC52D140EA2EFF2400E010E0102FCD
:10F1A0000F2DFE2CEE24C55DDE4FB881CB52D14031
:10F1B000EB0EF11C011D111DD601C501817090706F
:10F1C000A070B070DC0199278827E80EF91E0A1F8D
:10F1D0001B1F20EF30E040E050E0A222B322C42207
:10F1E000D52241E1AA0CBB1CCC1CDD1C4A95D1F7F1
:10F1F000EA0CFB1C0C1D1D1D81E090E0A0E0B0E0BE
:10F20000282239224A225B2235E1220C331C441C7D
:10F21000551C3A95D1F7E20CF31C041D151D57013E
:10F220006801AA0CBB1CCC1CDD1C85E192EE60E0E1
:10F230000F94C2F1C801AA27BB270F940DF2BB2778
:10F24000A12F902F8F2D0F940DF28E2D0F940DF274
:10F2500090E29093C6008091C00086FFFCCF809121
:10F26000C00080648093C000AEE3A093C60080918C
:10F27000C00086FFFCCF8091C00080648093C000F6
:10F28000C601AA27BB270F940DF2BB27AD2D9C2DDD
:10F290008B2D0F940DF28A2D0F940DF20F94DCF14B
:10F2A000CC5DDE4FE881F981C452D140F99709F471
:10F2B0004DCBF4E0EF2EF12C012D112D6E0C7F1CA7
:10F2C000801E911EF2CD83E093EE62E00F94F5F183
:10F2D0008AE192EE60E00F94C2F18091C00087FF56
:10F2E000FCCF1091C6001F751093C6008091C0001E
:10F2F00086FFFCCF8091C00080648093C0000F9493
:10F30000DCF1812F81548A3108F036C1163409F4BA
:10F3100095C0173490F4133409F44EC0143430F40B
:10F320001134F1F0123409F01DC130C0143409F465
:10F3300059C0153409F016C16BC01A3409F4C4C0A1
:10F340001B3438F4173409F48FC0183409F00AC19B
:10F35000A1C01B3409F4D2C01C3409F003C1E8C0B9
:10F360008FEF81B90DC082B1809582B980E090E0C5
:10F37000E0EDF7E03197F1F70196883C9105C1F790
:10F380008091C00087FFEFCF12B8EFC08FEF84B934
:10F390000DC085B1809585B980E090E0E0EDF7E0A3
:10F3A0003197F1F70196883C9105C1F78091C00033
:10F3B00087FFEFCF15B8D9C08FEF87B90DC088B1DF
:10F3C000809588B980E090E0E0EDF7E03197F1F7C3
:10F3D0000196883C9105C1F78091C00087FFEFCF6F
:10F3E00018B8C3C08FEF8AB90DC08BB180958BB9A7
:10F3F00080E090E0E0EDF7E03197F1F70196883C8E
:10F400009105C1F78091C00087FFEFCF1BB8ADC059
:10F410008FEF8DB90DC08EB180958EB980E090E0F0
:10F42000E0EDF7E03197F1F70196883C9105C1F7DF
:10F430008091C00087FFEFCF1EB897C08FEF80BBD1
:10F440000DC081B3809581BB80E090E0E0EDF7E0F6
:10F450003197F1F70196883C9105C1F78091C00082
:10F4600087FFEFCF11BA81C08FEF83BB0DC084B38C
:10F47000809584BB80E090E0E0EDF7E03197F1F714
:10F480000196883C9105C1F78091C00087FFEFCFBE
:10F4900014BA6BC08FEF809301010FC080910201FD
:10F4A00080958093020180E090E0E0EDF7E03197F5
:10F4B000F1F70196883C9105C1F78091C00087FF64
:10F4C000EDCF1092020151C08FEF809304010FC065
:10F4D0008091050180958093050180E090E0E0ED4A
:10F4E000F7E03197F1F70196883C9105C1F78091DB
:10F4F000C00087FFEDCF1092050137C08FEF8093DA
:10F5000007010FC08091080180958093080180E079
:10F5100090E0E0EDF7E03197F1F70196883C910536
:10F52000C1F78091C00087FFEDCF109208011DC088
:10F530008FEF80930A010FC080910B01809580931B
:10F540000B0180E090E0E0EDF7E03197F1F70196F4
:10F55000883C9105C1F78091C00087FFEDCF1092E4
:10F560000B0103C085E292EEEEC98091C00087FFD7
:10F57000FCCF8091C600EAC988E392EEE4C98CE131
:10F5800091EEE1C988249924933011F1943028F444
:10F59000913089F09230B8F408C0953061F195301F
:10F5A000F0F0963009F048C043C02B3109F042C951
:10F5B00091E06BE13FC96227C15DDE4F2883CF52E6
:10F5C000D14092E037C9B22FA0E0622793E032C960
:10F5D000822F90E0A82BB92B622794E02BC92E3004
:10F5E00009F039C3622795E0C05DDE4F19821882A9
:10F5F000C053D1401FC9E1E0F0E0EC0FFD1FC05D3A
:10F60000DE4F08811981C053D140E00FF11F2083E4
:10F610000F5F1F4FC05DDE4F19830883C053D14079
:10F6200062270A171B0709F005C9D80196E002C92D
:10F63000261709F010C303C0973009F0FBC87724E0
:10F640009981933109F412C19431C8F4963009F4C8
:10F65000D8C0973050F4923009F406C1933009F4C1
:10F660006DC0913009F059C253C0913109F477C08F
:10F67000923108F0BBC0903109F04FC2F5C098310B
:10F6800009F487C0993150F4953109F4EFC09531F0
:10F6900008F4C6C1963109F040C2C2C19A3109F4DA
:10F6A0006CC09A3108F491C09B3109F45BC09D3164
:10F6B00009F033C29D81903359F48F81882311F46E
:10F6C0009EE11CC0813011F091E018C098E916C08D
:10F6D000892F807591F0903539F4E0E0F0E089E011
:10F6E0008093570094910AC0983539F4E3E0F0E034
:10F6F00089E080935700949101C090E01A821B82A8
:10F700008D818C831D829E831F8227E030E009C299
:10F710001A8288E08B8381E48C8386E58D8382E581
:10F720008E8389E48F8383E5888780E589878FE5E9
:10F730008A8782E38B872BE030E0F3C18A818139AD
:10F7400041F0823941F0803911F48FE005C080E04A
:10F7500003C082E001C08AE01A828B8344C0772410
:10F76000739482C08D81882311F48EE12CC0813086
:10F7700011F081E028C088E926C01A82E1E0F0E0BB
:10F7800089E08093570084918B831C8224E030E0D1
:10F79000C8C18B81803589F48C81883039F4E2E0EE
:10F7A000F0E089E08093570084910DC0E0E0F0E044
:10F7B00089E080935700849106C0E3E0F0E089E09F
:10F7C0008093570084911A82DFCF8D81836C99E0FA
:10F7D000E1E0F0E0082E90935700E89507B600FCB2
:10F7E000FDCF1A821B8223E030E09BC180EC8A832C
:10F7F000CE5CDE4F188219821A821B82C253D1401E
:10F800008EC18A8190E0A0E0B0E0582F44273327D2
:10F8100022278B8190E0A0E0B0E0DC0199278827C7
:10F82000282B392B4A2B5B2B8D8190E0A0E0B0E098
:10F83000282B392B4A2B5B2B8C8190E0A0E0B0E089
:10F84000BA2FA92F982F8827282B392B4A2B5B2BCF
:10F85000220F331F441F551FC05EDE4F288339839C
:10F860004A835B83C052D1401A8259C13A81C95C34
:10F87000DE4F3883C753D140CA5CDE4F1882C6536F
:10F88000D1408B81C82EDD24CA5CDE4F488159816E
:10F89000C653D140C42AD52A933109F082C0CE5C28
:10F8A000DE4F88819981AA81BB81C253D1408050AB
:10F8B000904CA340B04030F583E0CE5CDE4FE88052
:10F8C000F9800A811B81C253D140F70100935B008C
:10F8D00080935700E89507B600FCFDCFCE5CDE4F65
:10F8E000088119812A813B81C253D14000501F4FAA
:10F8F0002F4F3F4FCE5CDE4F088319832A833B8313
:10F90000C253D140C05EDE4F488159816A817B81FC
:10F91000C052D140DE011B9631E08C9111962C91A2
:10F9200011971296C75CDE4F2883C953D140C85C3B
:10F93000DE4F1882C853D14090E0C85CDE4FE881AA
:10F94000F981C853D1408E2B9F2B0C01FA01609393
:10F950005B0030935700E89511244E5F5F4F6F4F67
:10F960007F4F0EEFE02E0FEFF02ECE0CDF1CC114F8
:10F97000D10499F685E0C05EDE4F088119812A81A5
:10F980003B81C052D140F80120935B008093570027
:10F99000E89507B600FCFDCF81E180935700E8951C
:10F9A00035C0C05EDE4F88819981AA81BB81C0527B
:10F9B000D140B695A795979587957C018601ABE0D8
:10F9C000AA2EB12CAC0EBD1E0BC0D5016D915D01F0
:10F9D000C7010F947FFE0894E11CF11C01501040F8
:10F9E0000115110591F7A60160E070E0440F551F65
:10F9F000661F771FC05EDE4FE880F9800A811B8199
:10FA0000C052D1404E0D5F1D601F711F1A82C05E33
:10FA1000DE4F488359836A837B83C052D1407FC0C5
:10FA2000FA80C55CDE4FF882CB53D140C65CDE4F16
:10FA30001882CA53D1408B81C82EDD24C65CDE4FAC
:10FA400008811981CA53D140C02AD12A1A828981DA
:10FA5000BE016D5F7F4F843121F59601C05EDE4FA0
:10FA6000E880F9800A811B81C052D1400BBFF701A9
:10FA700087919691DB018C9311969C936E5F7F4FDB
:10FA8000D801C7010296A11DB11DC05EDE4F88835B
:10FA90009983AA83BB83C052D14022503040F1F6F3
:10FAA00036C0C05EDE4F288139814A815B81C052F9
:10FAB000D1400894C108D108760100E010E0089414
:10FAC000C11CD11C0894E11CF11C011D111DE20E8A
:10FAD000F31E041F151F21BDBB27A52F942F832FB5
:10FAE00082BD2F5F3F4F4F4F5F4FF89A80B5DB01CC
:10FAF0008D93BD012E153F054007510761F7C05E8C
:10FB0000DE4F288339834A835B83C052D1409601FC
:10FB10002D5F3F4FFB01108204C080EC8A8322E0FE
:10FB200030E08BE18093C6008091C00086FFFCCF5F
:10FB30008091C00080648093C000C15DDE4FF88179
:10FB4000CF52D140F093C6008091C00086FFFCCF19
:10FB50008091C00080648093C000432F3093C60022
:10FB60008091C00086FFFCCF8091C00080648093AC
:10FB7000C000922F2093C6008091C00086FFFCCF6A
:10FB80008091C00080648093C0008EE08093C600A6
:10FB90008091C00086FFFCCF8091C000806480937C
:10FBA000C00065E1C15DDE4FE880CF52D1406E25D7
:10FBB00069276427FE01319610C090819093C6009A
:10FBC0008091C00086FFFCCF31968091C000806498
:10FBD0008093C0006927215030402115310569F715
:10FBE0006093C6008091C00086FFFCCF8091C0006A
:10FBF00080648093C00085B1805885B9772081F4F6
:10FC0000C15DDE4F0881CF52D1400F5FC15DDE4F35
:10FC10000883CF52D14090E0A0E0B0E00D941AF4F8
:10FC200027982F9880E090E020ED37E0F901319798
:10FC3000F1F7019684369105C9F700008091C00064
:10FC40008D7F8093C00081E180935700E895EE2777
:10FC5000FF270994FFCF90E00D941AF497FB092E2B
:10FC600007260AD077FD04D02ED006D000201AF443
:10FC7000709561957F4F0895F6F7909581959F4F08
:10FC80000895A1E21A2EAA1BBB1BFD010DC0AA1FDD
:10FC9000BB1FEE1FFF1FA217B307E407F50720F0F5
:10FCA000A21BB30BE40BF50B661F771F881F991F70
:10FCB0001A9469F760957095809590959B01AC01B9
:10FCC000BD01CF010895AA1BBB1B51E107C0AA1FAC
:10FCD000BB1FA617B70710F0A61BB70B881F991FED
:10FCE0005A95A9F780959095BC01CD010895F99991
:10FCF000FECF92BD81BDF89A992780B50895262F31
:10FD0000F999FECF1FBA92BD81BD20BD0FB6F89400
:0EFD1000FA9AF99A0FBE01960895F894FFCF63
:040000033000E000E9
:00000001FF
